{
  "_format": "hh-sol-artifact-1",
  "contractName": "LW3Punks",
  "sourceName": "contracts/LW3Punks.sol",
  "abi": [
    {
      "inputs": [
        {
          "internalType": "string",
          "name": "baseURI",
          "type": "string"
        }
      ],
      "stateMutability": "nonpayable",
      "type": "constructor"
    },
    {
      "anonymous": false,
      "inputs": [
        {
          "indexed": true,
          "internalType": "address",
          "name": "owner",
          "type": "address"
        },
        {
          "indexed": true,
          "internalType": "address",
          "name": "approved",
          "type": "address"
        },
        {
          "indexed": true,
          "internalType": "uint256",
          "name": "tokenId",
          "type": "uint256"
        }
      ],
      "name": "Approval",
      "type": "event"
    },
    {
      "anonymous": false,
      "inputs": [
        {
          "indexed": true,
          "internalType": "address",
          "name": "owner",
          "type": "address"
        },
        {
          "indexed": true,
          "internalType": "address",
          "name": "operator",
          "type": "address"
        },
        {
          "indexed": false,
          "internalType": "bool",
          "name": "approved",
          "type": "bool"
        }
      ],
      "name": "ApprovalForAll",
      "type": "event"
    },
    {
      "anonymous": false,
      "inputs": [
        {
          "indexed": true,
          "internalType": "address",
          "name": "previousOwner",
          "type": "address"
        },
        {
          "indexed": true,
          "internalType": "address",
          "name": "newOwner",
          "type": "address"
        }
      ],
      "name": "OwnershipTransferred",
      "type": "event"
    },
    {
      "anonymous": false,
      "inputs": [
        {
          "indexed": true,
          "internalType": "address",
          "name": "from",
          "type": "address"
        },
        {
          "indexed": true,
          "internalType": "address",
          "name": "to",
          "type": "address"
        },
        {
          "indexed": true,
          "internalType": "uint256",
          "name": "tokenId",
          "type": "uint256"
        }
      ],
      "name": "Transfer",
      "type": "event"
    },
    {
      "inputs": [],
      "name": "_paused",
      "outputs": [
        {
          "internalType": "bool",
          "name": "",
          "type": "bool"
        }
      ],
      "stateMutability": "view",
      "type": "function"
    },
    {
      "inputs": [],
      "name": "_price",
      "outputs": [
        {
          "internalType": "uint256",
          "name": "",
          "type": "uint256"
        }
      ],
      "stateMutability": "view",
      "type": "function"
    },
    {
      "inputs": [
        {
          "internalType": "address",
          "name": "to",
          "type": "address"
        },
        {
          "internalType": "uint256",
          "name": "tokenId",
          "type": "uint256"
        }
      ],
      "name": "approve",
      "outputs": [],
      "stateMutability": "nonpayable",
      "type": "function"
    },
    {
      "inputs": [
        {
          "internalType": "address",
          "name": "owner",
          "type": "address"
        }
      ],
      "name": "balanceOf",
      "outputs": [
        {
          "internalType": "uint256",
          "name": "",
          "type": "uint256"
        }
      ],
      "stateMutability": "view",
      "type": "function"
    },
    {
      "inputs": [],
      "name": "fallback",
      "outputs": [],
      "stateMutability": "payable",
      "type": "function"
    },
    {
      "inputs": [
        {
          "internalType": "uint256",
          "name": "tokenId",
          "type": "uint256"
        }
      ],
      "name": "getApproved",
      "outputs": [
        {
          "internalType": "address",
          "name": "",
          "type": "address"
        }
      ],
      "stateMutability": "view",
      "type": "function"
    },
    {
      "inputs": [
        {
          "internalType": "address",
          "name": "owner",
          "type": "address"
        },
        {
          "internalType": "address",
          "name": "operator",
          "type": "address"
        }
      ],
      "name": "isApprovedForAll",
      "outputs": [
        {
          "internalType": "bool",
          "name": "",
          "type": "bool"
        }
      ],
      "stateMutability": "view",
      "type": "function"
    },
    {
      "inputs": [],
      "name": "maxTokenIds",
      "outputs": [
        {
          "internalType": "uint256",
          "name": "",
          "type": "uint256"
        }
      ],
      "stateMutability": "view",
      "type": "function"
    },
    {
      "inputs": [],
      "name": "mint",
      "outputs": [],
      "stateMutability": "payable",
      "type": "function"
    },
    {
      "inputs": [],
      "name": "name",
      "outputs": [
        {
          "internalType": "string",
          "name": "",
          "type": "string"
        }
      ],
      "stateMutability": "view",
      "type": "function"
    },
    {
      "inputs": [],
      "name": "owner",
      "outputs": [
        {
          "internalType": "address",
          "name": "",
          "type": "address"
        }
      ],
      "stateMutability": "view",
      "type": "function"
    },
    {
      "inputs": [
        {
          "internalType": "uint256",
          "name": "tokenId",
          "type": "uint256"
        }
      ],
      "name": "ownerOf",
      "outputs": [
        {
          "internalType": "address",
          "name": "",
          "type": "address"
        }
      ],
      "stateMutability": "view",
      "type": "function"
    },
    {
      "inputs": [],
      "name": "receive",
      "outputs": [],
      "stateMutability": "payable",
      "type": "function"
    },
    {
      "inputs": [],
      "name": "renounceOwnership",
      "outputs": [],
      "stateMutability": "nonpayable",
      "type": "function"
    },
    {
      "inputs": [
        {
          "internalType": "address",
          "name": "from",
          "type": "address"
        },
        {
          "internalType": "address",
          "name": "to",
          "type": "address"
        },
        {
          "internalType": "uint256",
          "name": "tokenId",
          "type": "uint256"
        }
      ],
      "name": "safeTransferFrom",
      "outputs": [],
      "stateMutability": "nonpayable",
      "type": "function"
    },
    {
      "inputs": [
        {
          "internalType": "address",
          "name": "from",
          "type": "address"
        },
        {
          "internalType": "address",
          "name": "to",
          "type": "address"
        },
        {
          "internalType": "uint256",
          "name": "tokenId",
          "type": "uint256"
        },
        {
          "internalType": "bytes",
          "name": "data",
          "type": "bytes"
        }
      ],
      "name": "safeTransferFrom",
      "outputs": [],
      "stateMutability": "nonpayable",
      "type": "function"
    },
    {
      "inputs": [
        {
          "internalType": "address",
          "name": "operator",
          "type": "address"
        },
        {
          "internalType": "bool",
          "name": "approved",
          "type": "bool"
        }
      ],
      "name": "setApprovalForAll",
      "outputs": [],
      "stateMutability": "nonpayable",
      "type": "function"
    },
    {
      "inputs": [
        {
          "internalType": "bool",
          "name": "val",
          "type": "bool"
        }
      ],
      "name": "setPaused",
      "outputs": [],
      "stateMutability": "nonpayable",
      "type": "function"
    },
    {
      "inputs": [
        {
          "internalType": "bytes4",
          "name": "interfaceId",
          "type": "bytes4"
        }
      ],
      "name": "supportsInterface",
      "outputs": [
        {
          "internalType": "bool",
          "name": "",
          "type": "bool"
        }
      ],
      "stateMutability": "view",
      "type": "function"
    },
    {
      "inputs": [],
      "name": "symbol",
      "outputs": [
        {
          "internalType": "string",
          "name": "",
          "type": "string"
        }
      ],
      "stateMutability": "view",
      "type": "function"
    },
    {
      "inputs": [
        {
          "internalType": "uint256",
          "name": "index",
          "type": "uint256"
        }
      ],
      "name": "tokenByIndex",
      "outputs": [
        {
          "internalType": "uint256",
          "name": "",
          "type": "uint256"
        }
      ],
      "stateMutability": "view",
      "type": "function"
    },
    {
      "inputs": [],
      "name": "tokenIds",
      "outputs": [
        {
          "internalType": "uint256",
          "name": "",
          "type": "uint256"
        }
      ],
      "stateMutability": "view",
      "type": "function"
    },
    {
      "inputs": [
        {
          "internalType": "address",
          "name": "owner",
          "type": "address"
        },
        {
          "internalType": "uint256",
          "name": "index",
          "type": "uint256"
        }
      ],
      "name": "tokenOfOwnerByIndex",
      "outputs": [
        {
          "internalType": "uint256",
          "name": "",
          "type": "uint256"
        }
      ],
      "stateMutability": "view",
      "type": "function"
    },
    {
      "inputs": [
        {
          "internalType": "uint256",
          "name": "tokenId",
          "type": "uint256"
        }
      ],
      "name": "tokenURI",
      "outputs": [
        {
          "internalType": "string",
          "name": "",
          "type": "string"
        }
      ],
      "stateMutability": "view",
      "type": "function"
    },
    {
      "inputs": [],
      "name": "totalSupply",
      "outputs": [
        {
          "internalType": "uint256",
          "name": "",
          "type": "uint256"
        }
      ],
      "stateMutability": "view",
      "type": "function"
    },
    {
      "inputs": [
        {
          "internalType": "address",
          "name": "from",
          "type": "address"
        },
        {
          "internalType": "address",
          "name": "to",
          "type": "address"
        },
        {
          "internalType": "uint256",
          "name": "tokenId",
          "type": "uint256"
        }
      ],
      "name": "transferFrom",
      "outputs": [],
      "stateMutability": "nonpayable",
      "type": "function"
    },
    {
      "inputs": [
        {
          "internalType": "address",
          "name": "newOwner",
          "type": "address"
        }
      ],
      "name": "transferOwnership",
      "outputs": [],
      "stateMutability": "nonpayable",
      "type": "function"
    },
    {
      "inputs": [],
      "name": "withdraw",
      "outputs": [],
      "stateMutability": "nonpayable",
      "type": "function"
    }
  ],
  "bytecode": "0x6080604052662386f26fc10000600c55600a600e553480156200002157600080fd5b506040516200217c3803806200217c833981016040819052620000449162000141565b604051806040016040528060088152602001674c573350756e6b7360c01b8152506040518060400160405280600481526020016304c5733560e41b8152508160009081620000939190620002a7565b506001620000a28282620002a7565b505050620000bf620000b9620000d560201b60201c565b620000d9565b600b620000cd8282620002a7565b505062000373565b3390565b600a80546001600160a01b038381166001600160a01b0319831681179093556040519116919082907f8be0079c531659141344cd1fd0a4f28419497f9722a3daafe3b4186f6b6457e090600090a35050565b634e487b7160e01b600052604160045260246000fd5b600060208083850312156200015557600080fd5b82516001600160401b03808211156200016d57600080fd5b818501915085601f8301126200018257600080fd5b8151818111156200019757620001976200012b565b604051601f8201601f19908116603f01168101908382118183101715620001c257620001c26200012b565b816040528281528886848701011115620001db57600080fd5b600093505b82841015620001ff5784840186015181850187015292850192620001e0565b600086848301015280965050505050505092915050565b600181811c908216806200022b57607f821691505b6020821081036200024c57634e487b7160e01b600052602260045260246000fd5b50919050565b601f821115620002a2576000816000526020600020601f850160051c810160208610156200027d5750805b601f850160051c820191505b818110156200029e5782815560010162000289565b5050505b505050565b81516001600160401b03811115620002c357620002c36200012b565b620002db81620002d4845462000216565b8462000252565b602080601f831160018114620003135760008415620002fa5750858301515b600019600386901b1c1916600185901b1785556200029e565b600085815260208120601f198616915b82811015620003445788860151825594840194600190910190840162000323565b5085821015620003635787850151600019600388901b60f8161c191681555b5050505050600190811b01905550565b611df980620003836000396000f3fe6080604052600436106101b75760003560e01c8063552079dc116100ec57806395d89b411161008a578063b88d4fde11610064578063b88d4fde1461044d578063c87b56dd1461046d578063e985e9c51461048d578063f2fde38b146104d657600080fd5b806395d89b4114610418578063a22cb4651461042d578063a3e76c0f1461026b57600080fd5b806370a08231116100c657806370a08231146103af578063714cff56146103cf578063715018a6146103e55780638da5cb5b146103fa57600080fd5b8063552079dc1461026b5780635f769621146103795780636352211e1461038f57600080fd5b806318160ddd116101595780632f745c59116101335780632f745c59146103045780633ccfd60b1461032457806342842e0e146103395780634f6ccce71461035957600080fd5b806318160ddd146102af578063235b6ea1146102ce57806323b872dd146102e457600080fd5b8063095ea7b311610195578063095ea7b31461024b5780631249c58b1461026d57806316c38b3c1461027557806316c61ccc1461029557600080fd5b806301ffc9a7146101bc57806306fdde03146101f1578063081812fc14610213575b600080fd5b3480156101c857600080fd5b506101dc6101d73660046118f4565b6104f6565b60405190151581526020015b60405180910390f35b3480156101fd57600080fd5b50610206610521565b6040516101e89190611961565b34801561021f57600080fd5b5061023361022e366004611974565b6105b3565b6040516001600160a01b0390911681526020016101e8565b34801561025757600080fd5b5061026b6102663660046119a9565b6105da565b005b61026b6106f4565b34801561028157600080fd5b5061026b6102903660046119e3565b610814565b3480156102a157600080fd5b50600d546101dc9060ff1681565b3480156102bb57600080fd5b506008545b6040519081526020016101e8565b3480156102da57600080fd5b506102c0600c5481565b3480156102f057600080fd5b5061026b6102ff3660046119fe565b61082f565b34801561031057600080fd5b506102c061031f3660046119a9565b610860565b34801561033057600080fd5b5061026b6108f6565b34801561034557600080fd5b5061026b6103543660046119fe565b6109af565b34801561036557600080fd5b506102c0610374366004611974565b6109ca565b34801561038557600080fd5b506102c0600e5481565b34801561039b57600080fd5b506102336103aa366004611974565b610a5d565b3480156103bb57600080fd5b506102c06103ca366004611a3a565b610abd565b3480156103db57600080fd5b506102c0600f5481565b3480156103f157600080fd5b5061026b610b43565b34801561040657600080fd5b50600a546001600160a01b0316610233565b34801561042457600080fd5b50610206610b55565b34801561043957600080fd5b5061026b610448366004611a55565b610b64565b34801561045957600080fd5b5061026b610468366004611a9e565b610b73565b34801561047957600080fd5b50610206610488366004611974565b610bab565b34801561049957600080fd5b506101dc6104a8366004611b7a565b6001600160a01b03918216600090815260056020908152604080832093909416825291909152205460ff1690565b3480156104e257600080fd5b5061026b6104f1366004611a3a565b610c86565b60006001600160e01b0319821663780e9d6360e01b148061051b575061051b82610cff565b92915050565b60606000805461053090611ba4565b80601f016020809104026020016040519081016040528092919081815260200182805461055c90611ba4565b80156105a95780601f1061057e576101008083540402835291602001916105a9565b820191906000526020600020905b81548152906001019060200180831161058c57829003601f168201915b5050505050905090565b60006105be82610d4f565b506000908152600460205260409020546001600160a01b031690565b60006105e582610a5d565b9050806001600160a01b0316836001600160a01b0316036106575760405162461bcd60e51b815260206004820152602160248201527f4552433732313a20617070726f76616c20746f2063757272656e74206f776e656044820152603960f91b60648201526084015b60405180910390fd5b336001600160a01b0382161480610673575061067381336104a8565b6106e55760405162461bcd60e51b815260206004820152603d60248201527f4552433732313a20617070726f76652063616c6c6572206973206e6f7420746f60448201527f6b656e206f776e6572206f7220617070726f76656420666f7220616c6c000000606482015260840161064e565b6106ef8383610dae565b505050565b600d5460ff16156107475760405162461bcd60e51b815260206004820152601960248201527f436f6e74726163742063757272656e746c792070617573656400000000000000604482015260640161064e565b600e54600f541061079a5760405162461bcd60e51b815260206004820152601e60248201527f457863656564206d6178696d756d204c573350756e6b7320737570706c790000604482015260640161064e565b600c543410156107ec5760405162461bcd60e51b815260206004820152601960248201527f45746865722073656e74206973206e6f7420636f727265637400000000000000604482015260640161064e565b6001600f60008282546107ff9190611bf4565b9250508190555061081233600f54610e1c565b565b61081c610e36565b600d805460ff1916911515919091179055565b6108393382610e90565b6108555760405162461bcd60e51b815260040161064e90611c07565b6106ef838383610f0f565b600061086b83610abd565b82106108cd5760405162461bcd60e51b815260206004820152602b60248201527f455243373231456e756d657261626c653a206f776e657220696e646578206f7560448201526a74206f6620626f756e647360a81b606482015260840161064e565b506001600160a01b03919091166000908152600660209081526040808320938352929052205490565b6108fe610e36565b6000610912600a546001600160a01b031690565b60405190915047906000906001600160a01b0384169083908381818185875af1925050503d8060008114610962576040519150601f19603f3d011682016040523d82523d6000602084013e610967565b606091505b50509050806106ef5760405162461bcd60e51b81526020600482015260146024820152732330b4b632b2103a379039b2b7321022ba3432b960611b604482015260640161064e565b6106ef83838360405180602001604052806000815250610b73565b60006109d560085490565b8210610a385760405162461bcd60e51b815260206004820152602c60248201527f455243373231456e756d657261626c653a20676c6f62616c20696e646578206f60448201526b7574206f6620626f756e647360a01b606482015260840161064e565b60088281548110610a4b57610a4b611c54565b90600052602060002001549050919050565b6000818152600260205260408120546001600160a01b03168061051b5760405162461bcd60e51b8152602060048201526018602482015277115490cdcc8c4e881a5b9d985b1a59081d1bdad95b88125160421b604482015260640161064e565b60006001600160a01b038216610b275760405162461bcd60e51b815260206004820152602960248201527f4552433732313a2061646472657373207a65726f206973206e6f7420612076616044820152683634b21037bbb732b960b91b606482015260840161064e565b506001600160a01b031660009081526003602052604090205490565b610b4b610e36565b6108126000611080565b60606001805461053090611ba4565b610b6f3383836110d2565b5050565b610b7d3383610e90565b610b995760405162461bcd60e51b815260040161064e90611c07565b610ba5848484846111a0565b50505050565b6000818152600260205260409020546060906001600160a01b0316610c2a5760405162461bcd60e51b815260206004820152602f60248201527f4552433732314d657461646174613a2055524920717565727920666f72206e6f60448201526e3732bc34b9ba32b73a103a37b5b2b760891b606482015260840161064e565b6000610c346111d3565b90506000815111610c545760405180602001604052806000815250610c7f565b80610c5e846111e2565b604051602001610c6f929190611c6a565b6040516020818303038152906040525b9392505050565b610c8e610e36565b6001600160a01b038116610cf35760405162461bcd60e51b815260206004820152602660248201527f4f776e61626c653a206e6577206f776e657220697320746865207a65726f206160448201526564647265737360d01b606482015260840161064e565b610cfc81611080565b50565b60006001600160e01b031982166380ac58cd60e01b1480610d3057506001600160e01b03198216635b5e139f60e01b145b8061051b57506301ffc9a760e01b6001600160e01b031983161461051b565b6000818152600260205260409020546001600160a01b0316610cfc5760405162461bcd60e51b8152602060048201526018602482015277115490cdcc8c4e881a5b9d985b1a59081d1bdad95b88125160421b604482015260640161064e565b600081815260046020526040902080546001600160a01b0319166001600160a01b0384169081179091558190610de382610a5d565b6001600160a01b03167f8c5be1e5ebec7d5bd14f71427d1e84f3dd0314c0f7b2291e5b200ac8c7c3b92560405160405180910390a45050565b610b6f828260405180602001604052806000815250611275565b600a546001600160a01b031633146108125760405162461bcd60e51b815260206004820181905260248201527f4f776e61626c653a2063616c6c6572206973206e6f7420746865206f776e6572604482015260640161064e565b600080610e9c83610a5d565b9050806001600160a01b0316846001600160a01b03161480610ee357506001600160a01b0380821660009081526005602090815260408083209388168352929052205460ff165b80610f075750836001600160a01b0316610efc846105b3565b6001600160a01b0316145b949350505050565b826001600160a01b0316610f2282610a5d565b6001600160a01b031614610f485760405162461bcd60e51b815260040161064e90611ca9565b6001600160a01b038216610faa5760405162461bcd60e51b8152602060048201526024808201527f4552433732313a207472616e7366657220746f20746865207a65726f206164646044820152637265737360e01b606482015260840161064e565b610fb783838360016112a8565b826001600160a01b0316610fca82610a5d565b6001600160a01b031614610ff05760405162461bcd60e51b815260040161064e90611ca9565b600081815260046020908152604080832080546001600160a01b03199081169091556001600160a01b0387811680865260038552838620805460001901905590871680865283862080546001019055868652600290945282852080549092168417909155905184937fddf252ad1be2c89b69c2b068fc378daa952ba7f163c4a11628f55a4df523b3ef91a4505050565b600a80546001600160a01b038381166001600160a01b0319831681179093556040519116919082907f8be0079c531659141344cd1fd0a4f28419497f9722a3daafe3b4186f6b6457e090600090a35050565b816001600160a01b0316836001600160a01b0316036111335760405162461bcd60e51b815260206004820152601960248201527f4552433732313a20617070726f766520746f2063616c6c657200000000000000604482015260640161064e565b6001600160a01b03838116600081815260056020908152604080832094871680845294825291829020805460ff191686151590811790915591519182527f17307eab39ab6107e8899845ad3d59bd9653f200f220920489ca2b5937696c31910160405180910390a3505050565b6111ab848484610f0f565b6111b7848484846113dc565b610ba55760405162461bcd60e51b815260040161064e90611cee565b6060600b805461053090611ba4565b606060006111ef836114dd565b600101905060008167ffffffffffffffff81111561120f5761120f611a88565b6040519080825280601f01601f191660200182016040528015611239576020820181803683370190505b5090508181016020015b600019016f181899199a1a9b1b9c1cb0b131b232b360811b600a86061a8153600a850494508461124357509392505050565b61127f83836115b5565b61128c60008484846113dc565b6106ef5760405162461bcd60e51b815260040161064e90611cee565b60018111156113175760405162461bcd60e51b815260206004820152603560248201527f455243373231456e756d657261626c653a20636f6e7365637574697665207472604482015274185b9cd9995c9cc81b9bdd081cdd5c1c1bdc9d1959605a1b606482015260840161064e565b816001600160a01b0385166113735761136e81600880546000838152600960205260408120829055600182018355919091527ff3f7a9fe364faab93b216da50a3214154f22a0a2b415b23a84c8169e8b636ee30155565b611396565b836001600160a01b0316856001600160a01b03161461139657611396858261174e565b6001600160a01b0384166113b2576113ad816117eb565b6113d5565b846001600160a01b0316846001600160a01b0316146113d5576113d5848261189a565b5050505050565b60006001600160a01b0384163b156114d257604051630a85bd0160e11b81526001600160a01b0385169063150b7a0290611420903390899088908890600401611d40565b6020604051808303816000875af192505050801561145b575060408051601f3d908101601f1916820190925261145891810190611d7d565b60015b6114b8573d808015611489576040519150601f19603f3d011682016040523d82523d6000602084013e61148e565b606091505b5080516000036114b05760405162461bcd60e51b815260040161064e90611cee565b805181602001fd5b6001600160e01b031916630a85bd0160e11b149050610f07565b506001949350505050565b60008072184f03e93ff9f4daa797ed6e38ed64bf6a1f0160401b831061151c5772184f03e93ff9f4daa797ed6e38ed64bf6a1f0160401b830492506040015b6d04ee2d6d415b85acef81000000008310611548576d04ee2d6d415b85acef8100000000830492506020015b662386f26fc10000831061156657662386f26fc10000830492506010015b6305f5e100831061157e576305f5e100830492506008015b612710831061159257612710830492506004015b606483106115a4576064830492506002015b600a831061051b5760010192915050565b6001600160a01b03821661160b5760405162461bcd60e51b815260206004820181905260248201527f4552433732313a206d696e7420746f20746865207a65726f2061646472657373604482015260640161064e565b6000818152600260205260409020546001600160a01b0316156116705760405162461bcd60e51b815260206004820152601c60248201527f4552433732313a20746f6b656e20616c7265616479206d696e74656400000000604482015260640161064e565b61167e6000838360016112a8565b6000818152600260205260409020546001600160a01b0316156116e35760405162461bcd60e51b815260206004820152601c60248201527f4552433732313a20746f6b656e20616c7265616479206d696e74656400000000604482015260640161064e565b6001600160a01b038216600081815260036020908152604080832080546001019055848352600290915280822080546001600160a01b0319168417905551839291907fddf252ad1be2c89b69c2b068fc378daa952ba7f163c4a11628f55a4df523b3ef908290a45050565b6000600161175b84610abd565b6117659190611d9a565b6000838152600760205260409020549091508082146117b8576001600160a01b03841660009081526006602090815260408083208584528252808320548484528184208190558352600790915290208190555b5060009182526007602090815260408084208490556001600160a01b039094168352600681528383209183525290812055565b6008546000906117fd90600190611d9a565b6000838152600960205260408120546008805493945090928490811061182557611825611c54565b90600052602060002001549050806008838154811061184657611846611c54565b600091825260208083209091019290925582815260099091526040808220849055858252812055600880548061187e5761187e611dad565b6001900381819060005260206000200160009055905550505050565b60006118a583610abd565b6001600160a01b039093166000908152600660209081526040808320868452825280832085905593825260079052919091209190915550565b6001600160e01b031981168114610cfc57600080fd5b60006020828403121561190657600080fd5b8135610c7f816118de565b60005b8381101561192c578181015183820152602001611914565b50506000910152565b6000815180845261194d816020860160208601611911565b601f01601f19169290920160200192915050565b602081526000610c7f6020830184611935565b60006020828403121561198657600080fd5b5035919050565b80356001600160a01b03811681146119a457600080fd5b919050565b600080604083850312156119bc57600080fd5b6119c58361198d565b946020939093013593505050565b803580151581146119a457600080fd5b6000602082840312156119f557600080fd5b610c7f826119d3565b600080600060608486031215611a1357600080fd5b611a1c8461198d565b9250611a2a6020850161198d565b9150604084013590509250925092565b600060208284031215611a4c57600080fd5b610c7f8261198d565b60008060408385031215611a6857600080fd5b611a718361198d565b9150611a7f602084016119d3565b90509250929050565b634e487b7160e01b600052604160045260246000fd5b60008060008060808587031215611ab457600080fd5b611abd8561198d565b9350611acb6020860161198d565b925060408501359150606085013567ffffffffffffffff80821115611aef57600080fd5b818701915087601f830112611b0357600080fd5b813581811115611b1557611b15611a88565b604051601f8201601f19908116603f01168101908382118183101715611b3d57611b3d611a88565b816040528281528a6020848701011115611b5657600080fd5b82602086016020830137600060208483010152809550505050505092959194509250565b60008060408385031215611b8d57600080fd5b611b968361198d565b9150611a7f6020840161198d565b600181811c90821680611bb857607f821691505b602082108103611bd857634e487b7160e01b600052602260045260246000fd5b50919050565b634e487b7160e01b600052601160045260246000fd5b8082018082111561051b5761051b611bde565b6020808252602d908201527f4552433732313a2063616c6c6572206973206e6f7420746f6b656e206f776e6560408201526c1c881bdc88185c1c1c9bdd9959609a1b606082015260800190565b634e487b7160e01b600052603260045260246000fd5b60008351611c7c818460208801611911565b835190830190611c90818360208801611911565b64173539b7b760d91b9101908152600501949350505050565b60208082526025908201527f4552433732313a207472616e736665722066726f6d20696e636f72726563742060408201526437bbb732b960d91b606082015260800190565b60208082526032908201527f4552433732313a207472616e7366657220746f206e6f6e20455243373231526560408201527131b2b4bb32b91034b6b83632b6b2b73a32b960711b606082015260800190565b6001600160a01b0385811682528416602082015260408101839052608060608201819052600090611d7390830184611935565b9695505050505050565b600060208284031215611d8f57600080fd5b8151610c7f816118de565b8181038181111561051b5761051b611bde565b634e487b7160e01b600052603160045260246000fdfea2646970667358221220518bb62f33a4771cba1cc6ff0d910029af99b7240bd65d7f5bd0025821dc9cba64736f6c63430008180033",
  "linkReferences": {},
  "deployedLinkReferences": {}
}